:020000040000FA
:020000000528D1
:040002000034003492
:020008006C2862
:06000A00831600308600A1
:100010000130850081120112811101148114011532
:1000200000308B008B168B1783123F309000063008
:1000300091005B3092004F309300663094006D3039
:1000400095007D309600073097007F3098006F3024
:1000500099000430B4000030A400051C3628302874
:10006000A40A10302402031D36282B282408B000CF
:10007000B01D4D28301D3D283F28B01C4D280630AE
:1000800086008510051507303005B1000230B10239
:100090003108B300B201A0016620051952283008CA
:1000A000B300B20132083302031D57285928B20A9F
:1000B000522810308400320884070008051185108A
:1000C000860005118514A00166202D282008340221
:1000D000031D6628A0010800A00A0B110A30810048
:0200E000090015
:02400E00F93F78
:00000001FF
